:020000040000FA
:0400000080312528FE
:100008007E1480310B1F09280A2823282E00991DE9
:100018000E280F281A288F1D122813281A282000A6
:100028003E088A003D080A0080312328191D1D2832
:100038001E2823280F1D21282228232813287E1054
:1000480009008031272820308400003085001F30C7
:100058008231A92280317E10200082316E2A8231BD
:10006800AF228031003A03193A283B286B284828E8
:100078008231DD22803187288231D8228031872859
:100088008231CE228031872820002F08FA007A0892
:10009800F9000630203E86008701413F8A00403F34
:1000A8000A008031FB00FC017C08003A03195D2836
:1000B80044287B08013A03194428033A03193C28C9
:1000C800013A03194028073A031944284428200014
:1000D8003C101730203E86008701403F8400850190
:1000E800810A00088231E722803101302000B802FD
:1000F8000030B93B38083904031D83288428862832
:100108000630872803300800833101238031FA0044
:1001180020003708860087017A0881000130FA003C
:100128007A08B7070130B8020030B93B38083904FB
:1001380003199F28A028A5288231F0228031053094
:10014800CD28BC15AF288231BF228031CD2882311D
:10015800C4228031CD282C08FA007A08F900210839
:100168008A0020080A008031FB00FC017C08003A64
:100178000319BF28AB287B08013A0319AB28033AB7
:100188000319A728013A0319A728073A0319AB2826
:10019800AB2808002000960197019801FF309100D4
:1001A800FF309200FF309300FF303E00CE00F93060
:1001B800C300FF30B800E501C401B901CF01BA019D
:1001C800C501D001FF30BB00FF30C600FF30D100B1
:1001D800FF30BC00FF30C700FF30D2000830E80015
:1001E8000A303D00C90016303E00990017309A00C9
:1001F80009303D00C80008002000BC1510298231D4
:10020800D32281312E298231FE22813103302E29D9
:100218008231CE2281312E292C08FA007A08F90081
:1002280021088A0020080A008131FB00FC017C08B3
:10023800003A031920290C297B08013A03190C29D3
:10024800033A03190329013A03190329073A031941
:1002580007290C29080020003C100230FA007A080F
:10026800BB003E298231D32281315A298231CE22E4
:1002780081315A292E08FA007A08F9000430203E04
:1002880086008701413F8A00403F0A008131FB0018
:10029800FC017C08003A031952293A297B08023AE2
:1002A80003193629013A031936293A2908008231F7
:1002B800FB22813120003C1C62296329702982318C
:1002C800AF228131003A03196A296B2970290F304E
:1002D8002000BF003F08BA0020003A08BF00C00154
:1002E800BF35C00DAC303F0784008130403D8500EC
:1002F800013F8A00003F0A0081312000C100410807
:10030800BA000800F4007008710403198C298D29BB
:100318009E297435203E860087017008C03F710809
:10032800C13F7208F30074082C3E860087017308E9
:100338008100AB297435203E860087010F30C03F0D
:100348000330C13F74082C3E8600870181010800F4
:10035800E2340234893402349A34023433340034B7
:1003680088340034A234023400340134DD340234D9
:10037800D8340234D3340234CE340234C93402348B
:10038800C4340234BF340234BA3402342F34013452
:100398002000C300C401C40ABC18D329D429E52904
:1003A800BC14C40143080319DA29DB29DE29BA0180
:1003B800BA0AE2290230C2004208BA008231F822A1
:1003C8008131200044080800790886008701403FF1
:1003D800F000413FF1007908023E860087010108DC
:1003E8008231442281310030F500F600F701823174
:1003F80061228131023008000130F0000030F10044
:1004080079088231442282310030F500F600F70184
:10041800823161228231043008000230F00000305D
:10042800F10079088231442282310030F500F6006B
:10043800F701823161228231023008000130F00078
:100448000030F10079088231442282310030F50011
:10045800F600F70182316122823102300800023051
:10046800F0000030F10079088231442282310030F6
:10047800F500F600F701823161228231043008006C
:10048800F3002000BC1D492A4A2A532A7308F200A7
:100498007208B7007108B9007008B800BC110800EC
:1004A8008231922282318231802282318031CE2083
:1004B800823182317722823108007608F10075088E
:1004C800F0007708F8007808F200003081318621C2
:1004D800823108008231542282318231B522823140
:1004E800712A80312528623031008D008F019101F9
:1004F80002309300920108002300990108309A0005
:100508009B01033097009A12080020003C14031442
:10051800360D8231E7228231053008002F0096011E
:100528009701980199019A019B01080020003C1449
:1005380036358231E72282310330080020003C1032
:1005480083310423823104300800640080010131C2
:10055800890BAA2A003423001B0E890C890C013947
:10056800080001308131CC21823108002000BC1004
:10057800BB010E3008008231F422823109300800B4
:100588008231F42282310A3008008231F02282312D
:100598000530080083310723823100300800833199
:1005A8000A2382310130080083310A238231023064
:1005B800080083310A238231013008002000BC1072
:1005C800BB010E300800F0007008230096000800F8
:1005D80081315B218231080023009B121B16080021
:1005E80023009B161B16080023001B1408002E006E
:1005F8000F1108002E000F15080023001608080028
:1006080023009B15080023001B15080023009B14DA
:0A061800080005300800013008005A
:020000040001F9
:0A000E00EC3FFF3F9F3FFF3FFF3F25
:00000001FF
